{
  "contractName": "Election",
  "abi": [
    {
      "constant": true,
      "inputs": [
        {
          "name": "",
          "type": "bytes32"
        }
      ],
      "name": "votesReceived",
      "outputs": [
        {
          "name": "",
          "type": "uint8"
        }
      ],
      "payable": false,
      "stateMutability": "view",
      "type": "function"
    },
    {
      "constant": true,
      "inputs": [
        {
          "name": "",
          "type": "uint256"
        }
      ],
      "name": "candidateList",
      "outputs": [
        {
          "name": "",
          "type": "bytes32"
        }
      ],
      "payable": false,
      "stateMutability": "view",
      "type": "function"
    },
    {
      "inputs": [
        {
          "name": "candidateNames",
          "type": "bytes32[]"
        }
      ],
      "payable": false,
      "stateMutability": "nonpayable",
      "type": "constructor"
    },
    {
      "constant": false,
      "inputs": [
        {
          "name": "candidate",
          "type": "bytes32"
        }
      ],
      "name": "getVoteCount",
      "outputs": [
        {
          "name": "",
          "type": "uint8"
        }
      ],
      "payable": false,
      "stateMutability": "nonpayable",
      "type": "function"
    },
    {
      "constant": false,
      "inputs": [
        {
          "name": "candidate",
          "type": "bytes32"
        }
      ],
      "name": "castVote",
      "outputs": [],
      "payable": false,
      "stateMutability": "nonpayable",
      "type": "function"
    },
    {
      "constant": false,
      "inputs": [
        {
          "name": "candidate",
          "type": "bytes32"
        }
      ],
      "name": "isCandidate",
      "outputs": [
        {
          "name": "",
          "type": "bool"
        }
      ],
      "payable": false,
      "stateMutability": "nonpayable",
      "type": "function"
    }
  ],
  "bytecode": "0x608060405234801561001057600080fd5b5060405161041e38038061041e833981018060405281019080805182019291905050508060009080519060200190610049929190610050565b50506100c8565b828054828255906000526020600020908101928215610092579160200282015b82811115610091578251829060001916905591602001919060010190610070565b5b50905061009f91906100a3565b5090565b6100c591905b808211156100c15760008160009055506001016100a9565b5090565b90565b610347806100d76000396000f30060806040526004361061006d576000357c0100000000000000000000000000000000000000000000000000000000900463ffffffff1680633efafb6e146100725780637021939f146100a3578063a1695993146100ee578063b13c744b14610139578063b89694c614610182575b600080fd5b34801561007e57600080fd5b506100a160048036038101908080356000191690602001909291905050506101cb565b005b3480156100af57600080fd5b506100d2600480360381019080803560001916906020019092919050505061022e565b604051808260ff1660ff16815260200191505060405180910390f35b3480156100fa57600080fd5b5061011d600480360381019080803560001916906020019092919050505061024e565b604051808260ff1660ff16815260200191505060405180910390f35b34801561014557600080fd5b5061016460048036038101908080359060200190929190505050610299565b60405180826000191660001916815260200191505060405180910390f35b34801561018e57600080fd5b506101b160048036038101908080356000191690602001909291905050506102bc565b604051808215151515815260200191505060405180910390f35b600015156101d8826102bc565b151514156101e557600080fd5b6001806000836000191660001916815260200190815260200160002060008282829054906101000a900460ff160192506101000a81548160ff021916908360ff16021790555050565b60016020528060005260406000206000915054906101000a900460ff1681565b600080151561025c836102bc565b1515141561026957600080fd5b60016000836000191660001916815260200190815260200160002060009054906101000a900460ff169050919050565b6000818154811015156102a857fe5b906000526020600020016000915090505481565b600080600090505b6000805490508110156103105782600019166000828154811015156102e557fe5b90600052602060002001546000191614156103035760019150610315565b80806001019150506102c4565b600091505b509190505600a165627a7a723058201de0622636e80a355043a825ca79b649381b1240d5da50ea5568724503d3b3170029",
  "source": "pragma solidity ^0.4.6;\n\ncontract Election {\n  // Declare public variables in the Election contract\n  bytes32[] public candidateList; // Array of names of candidates\n  mapping (bytes32 => uint8) public votesReceived; // Associative array of votes per candidate\n\n  // Election constructor, takes array of candidate names\n  function Election(bytes32[] candidateNames) {\n    candidateList = candidateNames;\n  }\n\n  // Get the vote count for a candidate\n  function getVoteCount(bytes32 candidate) returns (uint8) {\n    if (isCandidate(candidate) == false) throw;\n    return votesReceived[candidate];\n  }\n\n  // Cast a vote for a candidate\n  function castVote(bytes32 candidate) {\n    if (isCandidate(candidate) == false) throw;\n    votesReceived[candidate] += 1;\n  }\n\n  // Check if candidate is in candidateList\n  function isCandidate(bytes32 candidate) returns (bool) {\n    for(uint i = 0; i < candidateList.length; i++) {\n      if (candidateList[i] == candidate) {\n        return true;\n      }\n    }\n    return false;\n  }\n}\n",
  "sourcePath": "/Users/admin/Desktop/etherium-projects/ethereum-app-demo/contracts/Election.sol",
  "compiler": {
    "name": "solc",
    "version": "0.4.26+commit.4563c3fc.Emscripten.clang"
  },
  "schemaVersion": "3.2.0",
  "updatedAt": "2020-06-14T06:37:19.580Z",
  "networkType": "ethereum",
  "devdoc": {
    "methods": {}
  },
  "userdoc": {
    "methods": {}
  }
}